{
  "_format": "hh-sol-artifact-1",
  "contractName": "Ecommarce",
  "sourceName": "contracts/Ecommarce.sol",
  "abi": [
    {
      "inputs": [],
      "stateMutability": "nonpayable",
      "type": "constructor"
    },
    {
      "inputs": [
        {
          "internalType": "uint256",
          "name": "_id",
          "type": "uint256"
        }
      ],
      "name": "ShowCustomersOrderIdById",
      "outputs": [
        {
          "internalType": "uint256[]",
          "name": "",
          "type": "uint256[]"
        }
      ],
      "stateMutability": "view",
      "type": "function"
    },
    {
      "inputs": [],
      "name": "ShowMyCustomers",
      "outputs": [
        {
          "internalType": "address[]",
          "name": "_buyers",
          "type": "address[]"
        }
      ],
      "stateMutability": "view",
      "type": "function"
    },
    {
      "inputs": [
        {
          "internalType": "uint256",
          "name": "_id",
          "type": "uint256"
        }
      ],
      "name": "ShowMyCustomersById",
      "outputs": [
        {
          "internalType": "address[]",
          "name": "_buyers",
          "type": "address[]"
        }
      ],
      "stateMutability": "view",
      "type": "function"
    },
    {
      "inputs": [
        {
          "internalType": "uint256",
          "name": "_orderId",
          "type": "uint256"
        },
        {
          "internalType": "uint256",
          "name": "_id",
          "type": "uint256"
        }
      ],
      "name": "ShowMyCustomersByOrderId",
      "outputs": [
        {
          "internalType": "address",
          "name": "_buyer",
          "type": "address"
        }
      ],
      "stateMutability": "view",
      "type": "function"
    },
    {
      "inputs": [
        {
          "internalType": "address",
          "name": "",
          "type": "address"
        },
        {
          "internalType": "uint256",
          "name": "",
          "type": "uint256"
        }
      ],
      "name": "allMyOrderIds",
      "outputs": [
        {
          "internalType": "uint256",
          "name": "",
          "type": "uint256"
        }
      ],
      "stateMutability": "view",
      "type": "function"
    },
    {
      "inputs": [
        {
          "internalType": "uint256",
          "name": "_productId",
          "type": "uint256"
        },
        {
          "internalType": "string",
          "name": "_deliveryAddress",
          "type": "string"
        },
        {
          "internalType": "uint256",
          "name": "_numberOfProducts",
          "type": "uint256"
        }
      ],
      "name": "buy",
      "outputs": [
        {
          "internalType": "uint256",
          "name": "",
          "type": "uint256"
        }
      ],
      "stateMutability": "payable",
      "type": "function"
    },
    {
      "inputs": [
        {
          "internalType": "uint256",
          "name": "_orderId",
          "type": "uint256"
        },
        {
          "internalType": "uint256",
          "name": "_productId",
          "type": "uint256"
        }
      ],
      "name": "cancellOrder",
      "outputs": [],
      "stateMutability": "nonpayable",
      "type": "function"
    },
    {
      "inputs": [
        {
          "internalType": "uint256",
          "name": "_orderId",
          "type": "uint256"
        },
        {
          "internalType": "uint256",
          "name": "_productId",
          "type": "uint256"
        }
      ],
      "name": "completeDelivery",
      "outputs": [],
      "stateMutability": "payable",
      "type": "function"
    },
    {
      "inputs": [
        {
          "internalType": "address",
          "name": "",
          "type": "address"
        },
        {
          "internalType": "uint256",
          "name": "",
          "type": "uint256"
        },
        {
          "internalType": "uint256",
          "name": "",
          "type": "uint256"
        }
      ],
      "name": "customerById",
      "outputs": [
        {
          "internalType": "address",
          "name": "",
          "type": "address"
        }
      ],
      "stateMutability": "view",
      "type": "function"
    },
    {
      "inputs": [
        {
          "internalType": "uint256",
          "name": "",
          "type": "uint256"
        },
        {
          "internalType": "uint256",
          "name": "",
          "type": "uint256"
        }
      ],
      "name": "customerByOrderId",
      "outputs": [
        {
          "internalType": "address",
          "name": "",
          "type": "address"
        }
      ],
      "stateMutability": "view",
      "type": "function"
    },
    {
      "inputs": [
        {
          "internalType": "uint256",
          "name": "",
          "type": "uint256"
        },
        {
          "internalType": "uint256",
          "name": "",
          "type": "uint256"
        },
        {
          "internalType": "address",
          "name": "",
          "type": "address"
        }
      ],
      "name": "delivery",
      "outputs": [
        {
          "internalType": "bool",
          "name": "",
          "type": "bool"
        }
      ],
      "stateMutability": "view",
      "type": "function"
    },
    {
      "inputs": [
        {
          "internalType": "uint256",
          "name": "",
          "type": "uint256"
        },
        {
          "internalType": "address",
          "name": "",
          "type": "address"
        },
        {
          "internalType": "uint256",
          "name": "",
          "type": "uint256"
        }
      ],
      "name": "deliveryLocation",
      "outputs": [
        {
          "internalType": "string",
          "name": "",
          "type": "string"
        }
      ],
      "stateMutability": "view",
      "type": "function"
    },
    {
      "inputs": [],
      "name": "endAt",
      "outputs": [
        {
          "internalType": "uint256",
          "name": "",
          "type": "uint256"
        }
      ],
      "stateMutability": "view",
      "type": "function"
    },
    {
      "inputs": [],
      "name": "getAllMyListedProducts",
      "outputs": [
        {
          "components": [
            {
              "internalType": "string",
              "name": "title",
              "type": "string"
            },
            {
              "internalType": "string",
              "name": "desc",
              "type": "string"
            },
            {
              "internalType": "string",
              "name": "img",
              "type": "string"
            },
            {
              "internalType": "uint256",
              "name": "price",
              "type": "uint256"
            },
            {
              "internalType": "uint256",
              "name": "productId",
              "type": "uint256"
            },
            {
              "internalType": "uint256",
              "name": "stocks",
              "type": "uint256"
            },
            {
              "internalType": "address[]",
              "name": "buyer",
              "type": "address[]"
            },
            {
              "internalType": "address payable",
              "name": "seller",
              "type": "address"
            }
          ],
          "internalType": "struct Ecommarce.Product[]",
          "name": "",
          "type": "tuple[]"
        }
      ],
      "stateMutability": "view",
      "type": "function"
    },
    {
      "inputs": [],
      "name": "getAllProducts",
      "outputs": [
        {
          "components": [
            {
              "internalType": "string",
              "name": "title",
              "type": "string"
            },
            {
              "internalType": "string",
              "name": "desc",
              "type": "string"
            },
            {
              "internalType": "string",
              "name": "img",
              "type": "string"
            },
            {
              "internalType": "uint256",
              "name": "price",
              "type": "uint256"
            },
            {
              "internalType": "uint256",
              "name": "productId",
              "type": "uint256"
            },
            {
              "internalType": "uint256",
              "name": "stocks",
              "type": "uint256"
            },
            {
              "internalType": "address[]",
              "name": "buyer",
              "type": "address[]"
            },
            {
              "internalType": "address payable",
              "name": "seller",
              "type": "address"
            }
          ],
          "internalType": "struct Ecommarce.Product[]",
          "name": "",
          "type": "tuple[]"
        }
      ],
      "stateMutability": "view",
      "type": "function"
    },
    {
      "inputs": [
        {
          "internalType": "address",
          "name": "",
          "type": "address"
        },
        {
          "internalType": "uint256",
          "name": "",
          "type": "uint256"
        }
      ],
      "name": "getItemId",
      "outputs": [
        {
          "internalType": "uint256",
          "name": "",
          "type": "uint256"
        }
      ],
      "stateMutability": "view",
      "type": "function"
    },
    {
      "inputs": [],
      "name": "getLatestPrice",
      "outputs": [
        {
          "internalType": "int256",
          "name": "",
          "type": "int256"
        }
      ],
      "stateMutability": "view",
      "type": "function"
    },
    {
      "inputs": [],
      "name": "getMyAllProduct",
      "outputs": [
        {
          "components": [
            {
              "internalType": "string",
              "name": "title",
              "type": "string"
            },
            {
              "internalType": "string",
              "name": "desc",
              "type": "string"
            },
            {
              "internalType": "string",
              "name": "img",
              "type": "string"
            },
            {
              "internalType": "uint256",
              "name": "price",
              "type": "uint256"
            },
            {
              "internalType": "uint256",
              "name": "productId",
              "type": "uint256"
            },
            {
              "internalType": "uint256",
              "name": "stocks",
              "type": "uint256"
            },
            {
              "internalType": "address[]",
              "name": "buyer",
              "type": "address[]"
            },
            {
              "internalType": "address payable",
              "name": "seller",
              "type": "address"
            }
          ],
          "internalType": "struct Ecommarce.Product[]",
          "name": "",
          "type": "tuple[]"
        }
      ],
      "stateMutability": "view",
      "type": "function"
    },
    {
      "inputs": [],
      "name": "listPrice",
      "outputs": [
        {
          "internalType": "uint256",
          "name": "",
          "type": "uint256"
        }
      ],
      "stateMutability": "view",
      "type": "function"
    },
    {
      "inputs": [],
      "name": "manager",
      "outputs": [
        {
          "internalType": "address payable",
          "name": "",
          "type": "address"
        }
      ],
      "stateMutability": "view",
      "type": "function"
    },
    {
      "inputs": [
        {
          "internalType": "address",
          "name": "",
          "type": "address"
        },
        {
          "internalType": "uint256",
          "name": "",
          "type": "uint256"
        }
      ],
      "name": "myCustomers",
      "outputs": [
        {
          "internalType": "address",
          "name": "",
          "type": "address"
        }
      ],
      "stateMutability": "view",
      "type": "function"
    },
    {
      "inputs": [
        {
          "internalType": "uint256",
          "name": "",
          "type": "uint256"
        },
        {
          "internalType": "uint256",
          "name": "",
          "type": "uint256"
        },
        {
          "internalType": "address",
          "name": "",
          "type": "address"
        }
      ],
      "name": "orderCancel",
      "outputs": [
        {
          "internalType": "bool",
          "name": "",
          "type": "bool"
        }
      ],
      "stateMutability": "view",
      "type": "function"
    },
    {
      "inputs": [
        {
          "internalType": "address",
          "name": "",
          "type": "address"
        },
        {
          "internalType": "uint256",
          "name": "",
          "type": "uint256"
        },
        {
          "internalType": "uint256",
          "name": "",
          "type": "uint256"
        }
      ],
      "name": "orderIdById",
      "outputs": [
        {
          "internalType": "uint256",
          "name": "",
          "type": "uint256"
        }
      ],
      "stateMutability": "view",
      "type": "function"
    },
    {
      "inputs": [
        {
          "internalType": "uint256",
          "name": "",
          "type": "uint256"
        }
      ],
      "name": "products",
      "outputs": [
        {
          "internalType": "string",
          "name": "title",
          "type": "string"
        },
        {
          "internalType": "string",
          "name": "desc",
          "type": "string"
        },
        {
          "internalType": "string",
          "name": "img",
          "type": "string"
        },
        {
          "internalType": "uint256",
          "name": "price",
          "type": "uint256"
        },
        {
          "internalType": "uint256",
          "name": "productId",
          "type": "uint256"
        },
        {
          "internalType": "uint256",
          "name": "stocks",
          "type": "uint256"
        },
        {
          "internalType": "address payable",
          "name": "seller",
          "type": "address"
        }
      ],
      "stateMutability": "view",
      "type": "function"
    },
    {
      "inputs": [
        {
          "internalType": "address",
          "name": "",
          "type": "address"
        },
        {
          "internalType": "uint256",
          "name": "",
          "type": "uint256"
        },
        {
          "internalType": "uint256",
          "name": "",
          "type": "uint256"
        }
      ],
      "name": "productsNumber",
      "outputs": [
        {
          "internalType": "uint256",
          "name": "",
          "type": "uint256"
        }
      ],
      "stateMutability": "view",
      "type": "function"
    },
    {
      "inputs": [
        {
          "internalType": "string",
          "name": "_title",
          "type": "string"
        },
        {
          "internalType": "string",
          "name": "_desc",
          "type": "string"
        },
        {
          "internalType": "uint256",
          "name": "_price",
          "type": "uint256"
        },
        {
          "internalType": "uint256",
          "name": "_stocks",
          "type": "uint256"
        },
        {
          "internalType": "string",
          "name": "_img",
          "type": "string"
        }
      ],
      "name": "registerProduct",
      "outputs": [],
      "stateMutability": "payable",
      "type": "function"
    },
    {
      "inputs": [],
      "name": "showAllMyOrderIds",
      "outputs": [
        {
          "internalType": "uint256[]",
          "name": "",
          "type": "uint256[]"
        }
      ],
      "stateMutability": "view",
      "type": "function"
    },
    {
      "inputs": [
        {
          "internalType": "uint256",
          "name": "_itemId",
          "type": "uint256"
        },
        {
          "internalType": "address",
          "name": "_address",
          "type": "address"
        }
      ],
      "name": "showOrderId",
      "outputs": [
        {
          "internalType": "uint256[]",
          "name": "",
          "type": "uint256[]"
        }
      ],
      "stateMutability": "view",
      "type": "function"
    },
    {
      "inputs": [
        {
          "internalType": "uint256",
          "name": "_productId",
          "type": "uint256"
        }
      ],
      "name": "showStockOfProduct",
      "outputs": [
        {
          "internalType": "uint256",
          "name": "",
          "type": "uint256"
        }
      ],
      "stateMutability": "view",
      "type": "function"
    },
    {
      "inputs": [
        {
          "internalType": "address",
          "name": "",
          "type": "address"
        },
        {
          "internalType": "uint256",
          "name": "",
          "type": "uint256"
        },
        {
          "internalType": "uint256",
          "name": "",
          "type": "uint256"
        }
      ],
      "name": "storeOrderId",
      "outputs": [
        {
          "internalType": "uint256",
          "name": "",
          "type": "uint256"
        }
      ],
      "stateMutability": "view",
      "type": "function"
    },
    {
      "inputs": [
        {
          "internalType": "uint256",
          "name": "_day",
          "type": "uint256"
        }
      ],
      "name": "updateDeliveryDays",
      "outputs": [],
      "stateMutability": "nonpayable",
      "type": "function"
    }
  ],
  "bytecode": "0x60806040526001600f556000601060146101000a81548160ff02191690831515021790555034801561003057600080fd5b5033601060006101000a81548173ffffffffffffffffffffffffffffffffffffffff021916908373ffffffffffffffffffffffffffffffffffffffff160217905550662386f26fc10000600e8190555062093a80600d81905550730715a7794a1dc8e42615f059dd6e406a6594651a6000806101000a81548173ffffffffffffffffffffffffffffffffffffffff021916908373ffffffffffffffffffffffffffffffffffffffff16021790555061471f806100ed6000396000f3fe6080604052600436106101d75760003560e01c80637f4ed9a811610102578063a8a013a411610095578063cec02c8f11610064578063cec02c8f14610745578063d04e8fdc14610775578063e1a983c1146107b2578063fff2af9f146107ef576101d7565b8063a8a013a414610675578063ab237860146106a0578063c6e92d63146106dd578063cc47f8bd14610708576101d7565b80638f3267b4116100d15780638f3267b4146105b45780638f4e9cbb146105d05780639c3ae2c21461060d578063a425271e14610638576101d7565b80637f4ed9a8146104fa57806381e4e9241461052357806385d73070146105605780638e15f47314610589576101d7565b806332f975071161017a5780636d3b939e116101495780636d3b939e146104245780636eb588d9146104615780637acc0b201461048c5780637cc3ae8c146104cf576101d7565b806332f9750714610363578063481c6a75146103a057806357a9666e146103cb578063691f8f35146103e7576101d7565b806319eb5790116101b657806319eb5790146102815780631f8f6733146102be5780632f0e6812146102fb57806330c07aee14610326576101d7565b80623ae292146101dc57806302ee3a52146102195780630fc1c82414610244575b600080fd5b3480156101e857600080fd5b5061020360048036038101906101fe919061346c565b61082c565b60405161021091906134bb565b60405180910390f35b34801561022557600080fd5b5061022e61085d565b60405161023b91906137e4565b60405180910390f35b34801561025057600080fd5b5061026b60048036038101906102669190613806565b610b75565b60405161027891906138f5565b60405180910390f35b34801561028d57600080fd5b506102a860048036038101906102a39190613917565b610c1e565b6040516102b591906134bb565b60405180910390f35b3480156102ca57600080fd5b506102e560048036038101906102e0919061396a565b610c5c565b6040516102f291906138f5565b60405180910390f35b34801561030757600080fd5b50610310610d04565b60405161031d91906137e4565b60405180910390f35b34801561033257600080fd5b5061034d6004803603810190610348919061346c565b61128c565b60405161035a91906139a6565b60405180910390f35b34801561036f57600080fd5b5061038a600480360381019061038591906139c1565b6112da565b60405161039791906139a6565b60405180910390f35b3480156103ac57600080fd5b506103b561131c565b6040516103c29190613a10565b60405180910390f35b6103e560048036038101906103e09190613b60565b611342565b005b3480156103f357600080fd5b5061040e60048036038101906104099190613917565b611527565b60405161041b91906134bb565b60405180910390f35b34801561043057600080fd5b5061044b60048036038101906104469190613917565b611565565b60405161045891906134bb565b60405180910390f35b34801561046d57600080fd5b50610476611597565b60405161048391906134bb565b60405180910390f35b34801561049857600080fd5b506104b360048036038101906104ae919061396a565b61159d565b6040516104c69796959493929190613c79565b60405180910390f35b3480156104db57600080fd5b506104e46117a7565b6040516104f191906134bb565b60405180910390f35b34801561050657600080fd5b50610521600480360381019061051c919061396a565b6117ad565b005b34801561052f57600080fd5b5061054a60048036038101906105459190613cfd565b611847565b6040516105579190613d6b565b60405180910390f35b34801561056c57600080fd5b50610587600480360381019061058291906139c1565b611883565b005b34801561059557600080fd5b5061059e611c2c565b6040516105ab9190613d9f565b60405180910390f35b6105ce60048036038101906105c991906139c1565b611cda565b005b3480156105dc57600080fd5b506105f760048036038101906105f2919061346c565b612005565b60405161060491906134bb565b60405180910390f35b34801561061957600080fd5b5061062261202a565b60405161062f91906137e4565b60405180910390f35b34801561064457600080fd5b5061065f600480360381019061065a9190613dba565b6124ec565b60405161066c9190613e0d565b60405180910390f35b34801561068157600080fd5b5061068a6125a6565b60405161069791906138f5565b60405180910390f35b3480156106ac57600080fd5b506106c760048036038101906106c29190613cfd565b61263b565b6040516106d49190613d6b565b60405180910390f35b3480156106e957600080fd5b506106f2612677565b6040516106ff9190613e9e565b60405180910390f35b34801561071457600080fd5b5061072f600480360381019061072a919061396a565b612742565b60405161073c91906134bb565b60405180910390f35b61075f600480360381019061075a9190613ec0565b61277c565b60405161076c91906134bb565b60405180910390f35b34801561078157600080fd5b5061079c600480360381019061079791906139c1565b613062565b6040516107a991906139a6565b60405180910390f35b3480156107be57600080fd5b506107d960048036038101906107d4919061396a565b6130b1565b6040516107e69190613e9e565b60405180910390f35b3480156107fb57600080fd5b5061081660048036038101906108119190613917565b61318f565b60405161082391906139a6565b60405180910390f35b600a602052816000526040600020818154811061084857600080fd5b90600052602060002001600091509150505481565b60606001805480602002602001604051908101604052809291908181526020016000905b82821015610b6c5783829060005260206000209060080201604051806101000160405290816000820180546108b590613f5e565b80601f01602080910402602001604051908101604052809291908181526020018280546108e190613f5e565b801561092e5780601f106109035761010080835404028352916020019161092e565b820191906000526020600020905b81548152906001019060200180831161091157829003601f168201915b5050505050815260200160018201805461094790613f5e565b80601f016020809104026020016040519081016040528092919081815260200182805461097390613f5e565b80156109c05780601f10610995576101008083540402835291602001916109c0565b820191906000526020600020905b8154815290600101906020018083116109a357829003601f168201915b505050505081526020016002820180546109d990613f5e565b80601f0160208091040260200160405190810160405280929190818152602001828054610a0590613f5e565b8015610a525780601f10610a2757610100808354040283529160200191610a52565b820191906000526020600020905b815481529060010190602001808311610a3557829003601f168201915b5050505050815260200160038201548152602001600482015481526020016005820154815260200160068201805480602002602001604051908101604052809291908181526020018280548015610afe57602002820191906000526020600020905b8160009054906101000a900473ffffffffffffffffffffffffffffffffffffffff1673ffffffffffffffffffffffffffffffffffffffff1681526020019060010190808311610ab4575b505050505081526020016007820160009054906101000a900473ffffffffffffffffffffffffffffffffffffffff1673ffffffffffffffffffffffffffffffffffffffff1673ffffffffffffffffffffffffffffffffffffffff168152505081526020019060010190610881565b50505050905090565b6060600960008373ffffffffffffffffffffffffffffffffffffffff1673ffffffffffffffffffffffffffffffffffffffff1681526020019081526020016000206000848152602001908152602001600020805480602002602001604051908101604052809291908181526020018280548015610c1157602002820191906000526020600020905b815481526020019060010190808311610bfd575b5050505050905092915050565b60096020528260005260406000206020528160005260406000208181548110610c4657600080fd5b9060005260206000200160009250925050505481565b6060600460003373ffffffffffffffffffffffffffffffffffffffff1673ffffffffffffffffffffffffffffffffffffffff1681526020019081526020016000206000838152602001908152602001600020805480602002602001604051908101604052809291908181526020018280548015610cf857602002820191906000526020600020905b815481526020019060010190808311610ce4575b50505050509050919050565b606060008060005b600180549050811015610e175760005b60018281548110610d3057610d2f613f90565b5b906000526020600020906008020160060180549050811015610e03573373ffffffffffffffffffffffffffffffffffffffff1660018381548110610d7757610d76613f90565b5b90600052602060002090600802016006018281548110610d9a57610d99613f90565b5b9060005260206000200160009054906101000a900473ffffffffffffffffffffffffffffffffffffffff1673ffffffffffffffffffffffffffffffffffffffff161415610df0578380610dec90613fee565b9450505b8080610dfb90613fee565b915050610d1c565b508080610e0f90613fee565b915050610d0c565b5060008267ffffffffffffffff811115610e3457610e33613a35565b5b604051908082528060200260200182016040528015610e6d57816020015b610e5a6131ea565b815260200190600190039081610e525790505b50905060005b6001805490508110156112825760005b60018281548110610e9757610e96613f90565b5b90600052602060002090600802016006018054905081101561126e573373ffffffffffffffffffffffffffffffffffffffff1660018381548110610ede57610edd613f90565b5b90600052602060002090600802016006018281548110610f0157610f00613f90565b5b9060005260206000200160009054906101000a900473ffffffffffffffffffffffffffffffffffffffff1673ffffffffffffffffffffffffffffffffffffffff16141561125b5760018281548110610f5c57610f5b613f90565b5b906000526020600020906008020160405180610100016040529081600082018054610f8690613f5e565b80601f0160208091040260200160405190810160405280929190818152602001828054610fb290613f5e565b8015610fff5780601f10610fd457610100808354040283529160200191610fff565b820191906000526020600020905b815481529060010190602001808311610fe257829003601f168201915b5050505050815260200160018201805461101890613f5e565b80601f016020809104026020016040519081016040528092919081815260200182805461104490613f5e565b80156110915780601f1061106657610100808354040283529160200191611091565b820191906000526020600020905b81548152906001019060200180831161107457829003601f168201915b505050505081526020016002820180546110aa90613f5e565b80601f01602080910402602001604051908101604052809291908181526020018280546110d690613f5e565b80156111235780601f106110f857610100808354040283529160200191611123565b820191906000526020600020905b81548152906001019060200180831161110657829003601f168201915b50505050508152602001600382015481526020016004820154815260200160058201548152602001600682018054806020026020016040519081016040528092919081815260200182805480156111cf57602002820191906000526020600020905b8160009054906101000a900473ffffffffffffffffffffffffffffffffffffffff1673ffffffffffffffffffffffffffffffffffffffff1681526020019060010190808311611185575b505050505081526020016007820160009054906101000a900473ffffffffffffffffffffffffffffffffffffffff1673ffffffffffffffffffffffffffffffffffffffff1673ffffffffffffffffffffffffffffffffffffffff168152505083858151811061124157611240613f90565b5b6020026020010181905250838061125790613fee565b9450505b808061126690613fee565b915050610e83565b50808061127a90613fee565b915050610e73565b5080935050505090565b600660205281600052604060002081815481106112a857600080fd5b906000526020600020016000915091509054906101000a900473ffffffffffffffffffffffffffffffffffffffff1681565b60076020528160005260406000206020528060005260406000206000915091509054906101000a900473ffffffffffffffffffffffffffffffffffffffff1681565b601060009054906101000a900473ffffffffffffffffffffffffffffffffffffffff1681565b60008311611385576040517f08c379a000000000000000000000000000000000000000000000000000000000815260040161137c906140a9565b60405180910390fd5b61138d6131ea565b85816000018190525084816020018190525081816040018190525083816060018181525050828160a0018181525050338160e0019073ffffffffffffffffffffffffffffffffffffffff16908173ffffffffffffffffffffffffffffffffffffffff1681525050600f5481608001818152505060018190806001815401808255809150506001900390600052602060002090600802016000909190919091506000820151816000019080519060200190611448929190613245565b506020820151816001019080519060200190611465929190613245565b506040820151816002019080519060200190611482929190613245565b50606082015181600301556080820151816004015560a0820151816005015560c08201518160060190805190602001906114bd9291906132cb565b5060e08201518160070160006101000a81548173ffffffffffffffffffffffffffffffffffffffff021916908373ffffffffffffffffffffffffffffffffffffffff1602179055505050600f600081548092919061151a90613fee565b9190505550505050505050565b6004602052826000526040600020602052816000526040600020818154811061154f57600080fd5b9060005260206000200160009250925050505481565b600260205282600052604060002060205281600052604060002060205280600052604060002060009250925050505481565b600e5481565b600181815481106115ad57600080fd5b90600052602060002090600802016000915090508060000180546115d090613f5e565b80601f01602080910402602001604051908101604052809291908181526020018280546115fc90613f5e565b80156116495780601f1061161e57610100808354040283529160200191611649565b820191906000526020600020905b81548152906001019060200180831161162c57829003601f168201915b50505050509080600101805461165e90613f5e565b80601f016020809104026020016040519081016040528092919081815260200182805461168a90613f5e565b80156116d75780601f106116ac576101008083540402835291602001916116d7565b820191906000526020600020905b8154815290600101906020018083116116ba57829003601f168201915b5050505050908060020180546116ec90613f5e565b80601f016020809104026020016040519081016040528092919081815260200182805461171890613f5e565b80156117655780601f1061173a57610100808354040283529160200191611765565b820191906000526020600020905b81548152906001019060200180831161174857829003601f168201915b5050505050908060030154908060040154908060050154908060070160009054906101000a900473ffffffffffffffffffffffffffffffffffffffff16905087565b600d5481565b601060009054906101000a900473ffffffffffffffffffffffffffffffffffffffff1673ffffffffffffffffffffffffffffffffffffffff163373ffffffffffffffffffffffffffffffffffffffff161461183d576040517f08c379a00000000000000000000000000000000000000000000000000000000081526004016118349061413b565b60405180910390fd5b80600d8190555050565b600c602052826000526040600020602052816000526040600020602052806000526040600020600092509250509054906101000a900460ff1681565b601060009054906101000a900473ffffffffffffffffffffffffffffffffffffffff1673ffffffffffffffffffffffffffffffffffffffff163373ffffffffffffffffffffffffffffffffffffffff161415611914576040517f08c379a000000000000000000000000000000000000000000000000000000000815260040161190b906141a7565b60405180910390fd5b6000151560086000848152602001908152602001600020600083815260200190815260200160002060003373ffffffffffffffffffffffffffffffffffffffff1673ffffffffffffffffffffffffffffffffffffffff16815260200190815260200160002060009054906101000a900460ff161515146119c9576040517f08c379a00000000000000000000000000000000000000000000000000000000081526004016119c090614213565b60405180910390fd5b60001515600c6000848152602001908152602001600020600083815260200190815260200160002060003373ffffffffffffffffffffffffffffffffffffffff1673ffffffffffffffffffffffffffffffffffffffff16815260200190815260200160002060009054906101000a900460ff16151514611a7e576040517f08c379a0000000000000000000000000000000000000000000000000000000008152600401611a759061427f565b60405180910390fd5b6000600260003373ffffffffffffffffffffffffffffffffffffffff1673ffffffffffffffffffffffffffffffffffffffff168152602001908152602001600020600083815260200190815260200160002060008481526020019081526020016000205490503373ffffffffffffffffffffffffffffffffffffffff166108fc8260018086611b0d919061429f565b81548110611b1e57611b1d613f90565b5b906000526020600020906008020160030154611b3a91906142d3565b9081150290604051600060405180830381858888f19350505050158015611b65573d6000803e3d6000fd5b508060018084611b75919061429f565b81548110611b8657611b85613f90565b5b90600052602060002090600802016005016000828254611ba6919061432d565b925050819055506001600c6000858152602001908152602001600020600084815260200190815260200160002060003373ffffffffffffffffffffffffffffffffffffffff1673ffffffffffffffffffffffffffffffffffffffff16815260200190815260200160002060006101000a81548160ff021916908315150217905550505050565b60008060008054906101000a900473ffffffffffffffffffffffffffffffffffffffff1673ffffffffffffffffffffffffffffffffffffffff1663feaf968c6040518163ffffffff1660e01b815260040160a06040518083038186803b158015611c9557600080fd5b505afa158015611ca9573d6000803e3d6000fd5b505050506040513d601f19601f82011682018060405250810190611ccd9190614406565b5050509150508091505090565b3373ffffffffffffffffffffffffffffffffffffffff1660018083611cff919061429f565b81548110611d1057611d0f613f90565b5b906000526020600020906008020160070160009054906101000a900473ffffffffffffffffffffffffffffffffffffffff1673ffffffffffffffffffffffffffffffffffffffff161415611d99576040517f08c379a0000000000000000000000000000000000000000000000000000000008152600401611d90906144cd565b60405180910390fd5b60001515600c6000848152602001908152602001600020600083815260200190815260200160002060003373ffffffffffffffffffffffffffffffffffffffff1673ffffffffffffffffffffffffffffffffffffffff16815260200190815260200160002060009054906101000a900460ff16151514611e4e576040517f08c379a0000000000000000000000000000000000000000000000000000000008152600401611e459061427f565b60405180910390fd5b6000600260003373ffffffffffffffffffffffffffffffffffffffff1673ffffffffffffffffffffffffffffffffffffffff1681526020019081526020016000206000838152602001908152602001600020600084815260200190815260200160002054905060018083611ec2919061429f565b81548110611ed357611ed2613f90565b5b906000526020600020906008020160070160009054906101000a900473ffffffffffffffffffffffffffffffffffffffff1673ffffffffffffffffffffffffffffffffffffffff166108fc8260018086611f2d919061429f565b81548110611f3e57611f3d613f90565b5b906000526020600020906008020160030154611f5a91906142d3565b9081150290604051600060405180830381858888f19350505050158015611f85573d6000803e3d6000fd5b50600160086000858152602001908152602001600020600084815260200190815260200160002060003373ffffffffffffffffffffffffffffffffffffffff1673ffffffffffffffffffffffffffffffffffffffff16815260200190815260200160002060006101000a81548160ff021916908315150217905550505050565b600b602052816000526040600020602052806000526040600020600091509150505481565b606060008060005b6001805490508110156120da573373ffffffffffffffffffffffffffffffffffffffff166001828154811061206a57612069613f90565b5b906000526020600020906008020160070160009054906101000a900473ffffffffffffffffffffffffffffffffffffffff1673ffffffffffffffffffffffffffffffffffffffff1614156120c75782806120c390613fee565b9350505b80806120d290613fee565b915050612032565b5060008267ffffffffffffffff8111156120f7576120f6613a35565b5b60405190808252806020026020018201604052801561213057816020015b61211d6131ea565b8152602001906001900390816121155790505b50905060005b6001805490508110156124e2573373ffffffffffffffffffffffffffffffffffffffff166001828154811061216e5761216d613f90565b5b906000526020600020906008020160070160009054906101000a900473ffffffffffffffffffffffffffffffffffffffff1673ffffffffffffffffffffffffffffffffffffffff1614156124cf57600181815481106121d0576121cf613f90565b5b9060005260206000209060080201604051806101000160405290816000820180546121fa90613f5e565b80601f016020809104026020016040519081016040528092919081815260200182805461222690613f5e565b80156122735780601f1061224857610100808354040283529160200191612273565b820191906000526020600020905b81548152906001019060200180831161225657829003601f168201915b5050505050815260200160018201805461228c90613f5e565b80601f01602080910402602001604051908101604052809291908181526020018280546122b890613f5e565b80156123055780601f106122da57610100808354040283529160200191612305565b820191906000526020600020905b8154815290600101906020018083116122e857829003601f168201915b5050505050815260200160028201805461231e90613f5e565b80601f016020809104026020016040519081016040528092919081815260200182805461234a90613f5e565b80156123975780601f1061236c57610100808354040283529160200191612397565b820191906000526020600020905b81548152906001019060200180831161237a57829003601f168201915b505050505081526020016003820154815260200160048201548152602001600582015481526020016006820180548060200260200160405190810160405280929190818152602001828054801561244357602002820191906000526020600020905b8160009054906101000a900473ffffffffffffffffffffffffffffffffffffffff1673ffffffffffffffffffffffffffffffffffffffff16815260200190600101908083116123f9575b505050505081526020016007820160009054906101000a900473ffffffffffffffffffffffffffffffffffffffff1673ffffffffffffffffffffffffffffffffffffffff1673ffffffffffffffffffffffffffffffffffffffff16815250508284815181106124b5576124b4613f90565b5b602002602001018190525082806124cb90613fee565b9350505b80806124da90613fee565b915050612136565b5080935050505090565b60056020528260005260406000206020528160005260406000206020528060005260406000206000925092505050805461252590613f5e565b80601f016020809104026020016040519081016040528092919081815260200182805461255190613f5e565b801561259e5780601f106125735761010080835404028352916020019161259e565b820191906000526020600020905b81548152906001019060200180831161258157829003601f168201915b505050505081565b6060600a60003373ffffffffffffffffffffffffffffffffffffffff1673ffffffffffffffffffffffffffffffffffffffff16815260200190815260200160002080548060200260200160405190810160405280929190818152602001828054801561263157602002820191906000526020600020905b81548152602001906001019080831161261d575b5050505050905090565b6008602052826000526040600020602052816000526040600020602052806000526040600020600092509250509054906101000a900460ff1681565b6060600660003373ffffffffffffffffffffffffffffffffffffffff1673ffffffffffffffffffffffffffffffffffffffff16815260200190815260200160002080548060200260200160405190810160405280929190818152602001828054801561273857602002820191906000526020600020905b8160009054906101000a900473ffffffffffffffffffffffffffffffffffffffff1673ffffffffffffffffffffffffffffffffffffffff16815260200190600101908083116126ee575b5050505050905090565b600060018083612752919061429f565b8154811061276357612762613f90565b5b9060005260206000209060080201600501549050919050565b6000816001808661278d919061429f565b8154811061279e5761279d613f90565b5b9060005260206000209060080201600301546127ba91906142d3565b34146127fb576040517f08c379a00000000000000000000000000000000000000000000000000000000081526004016127f290614539565b60405180910390fd5b3373ffffffffffffffffffffffffffffffffffffffff1660018086612820919061429f565b8154811061283157612830613f90565b5b906000526020600020906008020160070160009054906101000a900473ffffffffffffffffffffffffffffffffffffffff1673ffffffffffffffffffffffffffffffffffffffff1614156128ba576040517f08c379a00000000000000000000000000000000000000000000000000000000081526004016128b1906145a5565b60405180910390fd5b600082116128fd576040517f08c379a00000000000000000000000000000000000000000000000000000000081526004016128f490614637565b60405180910390fd5b6001808561290b919061429f565b8154811061291c5761291b613f90565b5b906000526020600020906008020160050154821115612970576040517f08c379a0000000000000000000000000000000000000000000000000000000008152600401612967906146c9565b60405180910390fd5b6000429050600060086000838152602001908152602001600020600087815260200190815260200160002060003373ffffffffffffffffffffffffffffffffffffffff1673ffffffffffffffffffffffffffffffffffffffff16815260200190815260200160002060006101000a81548160ff021916908315150217905550600960003373ffffffffffffffffffffffffffffffffffffffff1673ffffffffffffffffffffffffffffffffffffffff168152602001908152602001600020600086815260200190815260200160002081908060018154018082558091505060019003906000526020600020016000909190919091505560018086612a74919061429f565b81548110612a8557612a84613f90565b5b9060005260206000209060080201600601339080600181540180825580915050600190039060005260206000200160009091909190916101000a81548173ffffffffffffffffffffffffffffffffffffffff021916908373ffffffffffffffffffffffffffffffffffffffff160217905550836005600087815260200190815260200160002060003373ffffffffffffffffffffffffffffffffffffffff1673ffffffffffffffffffffffffffffffffffffffff16815260200190815260200160002060004281526020019081526020016000209080519060200190612b6c929190613245565b5084600b60003373ffffffffffffffffffffffffffffffffffffffff1673ffffffffffffffffffffffffffffffffffffffff168152602001908152602001600020600083815260200190815260200160002081905550600a60003373ffffffffffffffffffffffffffffffffffffffff1673ffffffffffffffffffffffffffffffffffffffff16815260200190815260200160002081908060018154018082558091505060019003906000526020600020016000909190919091505560018086612c36919061429f565b81548110612c4757612c46613f90565b5b90600052602060002090600802016006016006600060018089612c6a919061429f565b81548110612c7b57612c7a613f90565b5b906000526020600020906008020160070160009054906101000a900473ffffffffffffffffffffffffffffffffffffffff1673ffffffffffffffffffffffffffffffffffffffff1673ffffffffffffffffffffffffffffffffffffffff168152602001908152602001600020908054612cf5929190613355565b5060018086612d04919061429f565b81548110612d1557612d14613f90565b5b90600052602060002090600802016006016003600060018089612d38919061429f565b81548110612d4957612d48613f90565b5b906000526020600020906008020160070160009054906101000a900473ffffffffffffffffffffffffffffffffffffffff1673ffffffffffffffffffffffffffffffffffffffff1673ffffffffffffffffffffffffffffffffffffffff1681526020019081526020016000206000878152602001908152602001600020908054612dd4929190613355565b506004600060018088612de7919061429f565b81548110612df857612df7613f90565b5b906000526020600020906008020160070160009054906101000a900473ffffffffffffffffffffffffffffffffffffffff1673ffffffffffffffffffffffffffffffffffffffff1673ffffffffffffffffffffffffffffffffffffffff168152602001908152602001600020600086815260200190815260200160002081908060018154018082558091505060019003906000526020600020016000909190919091505560018086612eaa919061429f565b81548110612ebb57612eba613f90565b5b9060005260206000209060080201600601600180600188612edc919061429f565b81548110612eed57612eec613f90565b5b906000526020600020906008020160060180549050612f0c919061429f565b81548110612f1d57612f1c613f90565b5b9060005260206000200160009054906101000a900473ffffffffffffffffffffffffffffffffffffffff1660076000838152602001908152602001600020600087815260200190815260200160002060006101000a81548173ffffffffffffffffffffffffffffffffffffffff021916908373ffffffffffffffffffffffffffffffffffffffff16021790555082600260003373ffffffffffffffffffffffffffffffffffffffff1673ffffffffffffffffffffffffffffffffffffffff1681526020019081526020016000206000878152602001908152602001600020600042815260200190815260200160002081905550826001808761301f919061429f565b815481106130305761302f613f90565b5b90600052602060002090600802016005016000828254613050919061429f565b92505081905550429150509392505050565b600060076000848152602001908152602001600020600083815260200190815260200160002060009054906101000a900473ffffffffffffffffffffffffffffffffffffffff16905092915050565b6060600360003373ffffffffffffffffffffffffffffffffffffffff1673ffffffffffffffffffffffffffffffffffffffff168152602001908152602001600020600083815260200190815260200160002080548060200260200160405190810160405280929190818152602001828054801561318357602002820191906000526020600020905b8160009054906101000a900473ffffffffffffffffffffffffffffffffffffffff1673ffffffffffffffffffffffffffffffffffffffff1681526020019060010190808311613139575b50505050509050919050565b600360205282600052604060002060205281600052604060002081815481106131b757600080fd5b90600052602060002001600092509250509054906101000a900473ffffffffffffffffffffffffffffffffffffffff1681565b60405180610100016040528060608152602001606081526020016060815260200160008152602001600081526020016000815260200160608152602001600073ffffffffffffffffffffffffffffffffffffffff1681525090565b82805461325190613f5e565b90600052602060002090601f01602090048101928261327357600085556132ba565b82601f1061328c57805160ff19168380011785556132ba565b828001600101855582156132ba579182015b828111156132b957825182559160200191906001019061329e565b5b5090506132c791906133a7565b5090565b828054828255906000526020600020908101928215613344579160200282015b828111156133435782518260006101000a81548173ffffffffffffffffffffffffffffffffffffffff021916908373ffffffffffffffffffffffffffffffffffffffff160217905550916020019190600101906132eb565b5b50905061335191906133a7565b5090565b8280548282559060005260206000209081019282156133965760005260206000209182015b8281111561339557825482559160010191906001019061337a565b5b5090506133a391906133a7565b5090565b5b808211156133c05760008160009055506001016133a8565b5090565b6000604051905090565b600080fd5b600080fd5b600073ffffffffffffffffffffffffffffffffffffffff82169050919050565b6000613403826133d8565b9050919050565b613413816133f8565b811461341e57600080fd5b50565b6000813590506134308161340a565b92915050565b6000819050919050565b61344981613436565b811461345457600080fd5b50565b60008135905061346681613440565b92915050565b60008060408385031215613483576134826133ce565b5b600061349185828601613421565b92505060206134a285828601613457565b9150509250929050565b6134b581613436565b82525050565b60006020820190506134d060008301846134ac565b92915050565b600081519050919050565b600082825260208201905092915050565b6000819050602082019050919050565b600081519050919050565b600082825260208201905092915050565b60005b8381101561353c578082015181840152602081019050613521565b8381111561354b576000848401525b50505050565b6000601f19601f8301169050919050565b600061356d82613502565b613577818561350d565b935061358781856020860161351e565b61359081613551565b840191505092915050565b6135a481613436565b82525050565b600081519050919050565b600082825260208201905092915050565b6000819050602082019050919050565b6135df816133f8565b82525050565b60006135f183836135d6565b60208301905092915050565b6000602082019050919050565b6000613615826135aa565b61361f81856135b5565b935061362a836135c6565b8060005b8381101561365b57815161364288826135e5565b975061364d836135fd565b92505060018101905061362e565b5085935050505092915050565b6000613673826133d8565b9050919050565b61368381613668565b82525050565b60006101008301600083015184820360008601526136a78282613562565b915050602083015184820360208601526136c18282613562565b915050604083015184820360408601526136db8282613562565b91505060608301516136f0606086018261359b565b506080830151613703608086018261359b565b5060a083015161371660a086018261359b565b5060c083015184820360c086015261372e828261360a565b91505060e083015161374360e086018261367a565b508091505092915050565b600061375a8383613689565b905092915050565b6000602082019050919050565b600061377a826134d6565b61378481856134e1565b935083602082028501613796856134f2565b8060005b858110156137d257848403895281516137b3858261374e565b94506137be83613762565b925060208a0199505060018101905061379a565b50829750879550505050505092915050565b600060208201905081810360008301526137fe818461376f565b905092915050565b6000806040838503121561381d5761381c6133ce565b5b600061382b85828601613457565b925050602061383c85828601613421565b9150509250929050565b600081519050919050565b600082825260208201905092915050565b6000819050602082019050919050565b600061387e838361359b565b60208301905092915050565b6000602082019050919050565b60006138a282613846565b6138ac8185613851565b93506138b783613862565b8060005b838110156138e85781516138cf8882613872565b97506138da8361388a565b9250506001810190506138bb565b5085935050505092915050565b6000602082019050818103600083015261390f8184613897565b905092915050565b6000806000606084860312156139305761392f6133ce565b5b600061393e86828701613421565b935050602061394f86828701613457565b925050604061396086828701613457565b9150509250925092565b6000602082840312156139805761397f6133ce565b5b600061398e84828501613457565b91505092915050565b6139a0816133f8565b82525050565b60006020820190506139bb6000830184613997565b92915050565b600080604083850312156139d8576139d76133ce565b5b60006139e685828601613457565b92505060206139f785828601613457565b9150509250929050565b613a0a81613668565b82525050565b6000602082019050613a256000830184613a01565b92915050565b600080fd5b600080fd5b7f4e487b7100000000000000000000000000000000000000000000000000000000600052604160045260246000fd5b613a6d82613551565b810181811067ffffffffffffffff82111715613a8c57613a8b613a35565b5b80604052505050565b6000613a9f6133c4565b9050613aab8282613a64565b919050565b600067ffffffffffffffff821115613acb57613aca613a35565b5b613ad482613551565b9050602081019050919050565b82818337600083830152505050565b6000613b03613afe84613ab0565b613a95565b905082815260208101848484011115613b1f57613b1e613a30565b5b613b2a848285613ae1565b509392505050565b600082601f830112613b4757613b46613a2b565b5b8135613b57848260208601613af0565b91505092915050565b600080600080600060a08688031215613b7c57613b7b6133ce565b5b600086013567ffffffffffffffff811115613b9a57613b996133d3565b5b613ba688828901613b32565b955050602086013567ffffffffffffffff811115613bc757613bc66133d3565b5b613bd388828901613b32565b9450506040613be488828901613457565b9350506060613bf588828901613457565b925050608086013567ffffffffffffffff811115613c1657613c156133d3565b5b613c2288828901613b32565b9150509295509295909350565b600082825260208201905092915050565b6000613c4b82613502565b613c558185613c2f565b9350613c6581856020860161351e565b613c6e81613551565b840191505092915050565b600060e0820190508181036000830152613c93818a613c40565b90508181036020830152613ca78189613c40565b90508181036040830152613cbb8188613c40565b9050613cca60608301876134ac565b613cd760808301866134ac565b613ce460a08301856134ac565b613cf160c0830184613a01565b98975050505050505050565b600080600060608486031215613d1657613d156133ce565b5b6000613d2486828701613457565b9350506020613d3586828701613457565b9250506040613d4686828701613421565b9150509250925092565b60008115159050919050565b613d6581613d50565b82525050565b6000602082019050613d806000830184613d5c565b92915050565b6000819050919050565b613d9981613d86565b82525050565b6000602082019050613db46000830184613d90565b92915050565b600080600060608486031215613dd357613dd26133ce565b5b6000613de186828701613457565b9350506020613df286828701613421565b9250506040613e0386828701613457565b9150509250925092565b60006020820190508181036000830152613e278184613c40565b905092915050565b600082825260208201905092915050565b6000613e4b826135aa565b613e558185613e2f565b9350613e60836135c6565b8060005b83811015613e91578151613e7888826135e5565b9750613e83836135fd565b925050600181019050613e64565b5085935050505092915050565b60006020820190508181036000830152613eb88184613e40565b905092915050565b600080600060608486031215613ed957613ed86133ce565b5b6000613ee786828701613457565b935050602084013567ffffffffffffffff811115613f0857613f076133d3565b5b613f1486828701613b32565b9250506040613f2586828701613457565b9150509250925092565b7f4e487b7100000000000000000000000000000000000000000000000000000000600052602260045260246000fd5b60006002820490506001821680613f7657607f821691505b60208210811415613f8a57613f89613f2f565b5b50919050565b7f4e487b7100000000000000000000000000000000000000000000000000000000600052603260045260246000fd5b7f4e487b7100000000000000000000000000000000000000000000000000000000600052601160045260246000fd5b6000613ff982613436565b91507fffffffffffffffffffffffffffffffffffffffffffffffffffffffffffffffff82141561402c5761402b613fbf565b5b600182019050919050565b7f50726963652073686f756c642062652067726561746572207468656e207a657260008201527f6f00000000000000000000000000000000000000000000000000000000000000602082015250565b6000614093602183613c2f565b915061409e82614037565b604082019050919050565b600060208201905081810360008301526140c281614086565b9050919050565b7f4f6e6c79206d616e616765722063616e2063616c6c20746869732066756e637460008201527f696f6e0000000000000000000000000000000000000000000000000000000000602082015250565b6000614125602383613c2f565b9150614130826140c9565b604082019050919050565b6000602082019050818103600083015261415481614118565b9050919050565b7f4d616e616765722063616e27742063616e63656c6c20746865206f7264657200600082015250565b6000614191601f83613c2f565b915061419c8261415b565b602082019050919050565b600060208201905081810360008301526141c081614184565b9050919050565b7f416c72656164792064656c697665726564000000000000000000000000000000600082015250565b60006141fd601183613c2f565b9150614208826141c7565b602082019050919050565b6000602082019050818103600083015261422c816141f0565b9050919050565b7f416c72656164792043616e63656c6c6564000000000000000000000000000000600082015250565b6000614269601183613c2f565b915061427482614233565b602082019050919050565b600060208201905081810360008301526142988161425c565b9050919050565b60006142aa82613436565b91506142b583613436565b9250828210156142c8576142c7613fbf565b5b828203905092915050565b60006142de82613436565b91506142e983613436565b9250817fffffffffffffffffffffffffffffffffffffffffffffffffffffffffffffffff048311821515161561432257614321613fbf565b5b828202905092915050565b600061433882613436565b915061434383613436565b9250827fffffffffffffffffffffffffffffffffffffffffffffffffffffffffffffffff0382111561437857614377613fbf565b5b828201905092915050565b600069ffffffffffffffffffff82169050919050565b6143a281614383565b81146143ad57600080fd5b50565b6000815190506143bf81614399565b92915050565b6143ce81613d86565b81146143d957600080fd5b50565b6000815190506143eb816143c5565b92915050565b60008151905061440081613440565b92915050565b600080600080600060a08688031215614422576144216133ce565b5b6000614430888289016143b0565b9550506020614441888289016143dc565b9450506040614452888289016143f1565b9350506060614463888289016143f1565b9250506080614474888289016143b0565b9150509295509295909350565b7f4f6e6c792062757965722063616e2063616c6c20746869730000000000000000600082015250565b60006144b7601883613c2f565b91506144c282614481565b602082019050919050565b600060208201905081810360008301526144e6816144aa565b9050919050565b7f506c656173652020706179207468652065786163742070726963650000000000600082015250565b6000614523601b83613c2f565b915061452e826144ed565b602082019050919050565b6000602082019050818103600083015261455281614516565b9050919050565b7f53656c6c6572206e6f7420626520746865206275796572000000000000000000600082015250565b600061458f601783613c2f565b915061459a82614559565b602082019050919050565b600060208201905081810360008301526145be81614582565b9050919050565b7f506c656173652073656c65637420686f77206d616e792070726f64756374732060008201527f796f752077616e7420746f206275790000000000000000000000000000000000602082015250565b6000614621602f83613c2f565b915061462c826145c5565b604082019050919050565b6000602082019050818103600083015261465081614614565b9050919050565b7f596f75207265616368207468652070726f6475637427732073746f636b206c6960008201527f6d69740000000000000000000000000000000000000000000000000000000000602082015250565b60006146b3602383613c2f565b91506146be82614657565b604082019050919050565b600060208201905081810360008301526146e2816146a6565b905091905056fea2646970667358221220464c1e717c1ba73f1e7dbe461f986d262f76ed801c176a2f6be7cf14a9cc20cb64736f6c63430008090033",
  "linkReferences": {},
  "deployedLinkReferences": {}
}